:100000000C942A000C9447000C9447000C94470071
:100010000C943C1B0C9447000C9447000C94470034
:100020000C9447000C943E170C9447000C94BF1C92
:100030000C9447000C9447000C9447000C94470024
:100040000C9447000C9447000C9447000C946C17D8
:100050000C94470011241FBECFE5D4E0DEBFCDBF16
:1000600010E0A0E6B0E0E2E8FCE302C005900D92EB
:10007000A23FB107D9F711E0A2EFB0E001C01D9295
:10008000A530B107E1F70E9433110C943F1E0C9488
:100090000000EF92FF920F931F937B018C0120E0F1
:1000A00030E040E05FE40E94490388238CF0C801FF
:1000B000B70120E030E040E05FE40E94C1010E940F
:1000C000A9039B01AC01205030404040504806C07D
:1000D000C801B7010E94A9039B01AC01B901CA0183
:1000E0001F910F91FF90EF900895A0E0B0E0EBE733
:1000F000F0E00C94AE1DDC012B01FA019C919230D2
:1001000008F439C1EB018881823008F433C194309E
:1001100069F4843009F02FC111969C91119789815F
:10012000981709F428C1A6EEB0E025C1843009F47F
:1001300021C18230A9F4923009F01DC19A01AD01AC
:1001400088E0EA010990AE01E90109929E0181501F
:10015000C1F7E201898111969C918923818308C1AD
:10016000923009F407C112962D903C901397EB0141
:100170008A819B811496AD90BD90CD90DC901797AD
:10018000EC80FD800E811F819101281B390BB90184
:1001900037FF04C066277727621B730B6032710537
:1001A0000CF061C0121613066CF537014801062EDB
:1001B00004C096948794779467940A94D2F721E0C8
:1001C00030E040E050E004C0220F331F441F551FB1
:1001D0006A95D2F721503040404050402E213F21B7
:1001E00040235123211531054105510521F021E01E
:1001F00030E040E050E079018A01E628F72808293C
:1002000019293CC0232BD1F1260E371E350146019A
:10021000062E04C096948794779467940A94D2F734
:1002200021E030E040E050E004C0220F331F441FC3
:10023000551F6A95D2F721503040404050402A2146
:100240003B214C215D21211531054105510521F04E
:1002500021E030E040E050E059016A01A628B728CB
:10026000C828D9280BC0821593052CF01C01AA249C
:10027000BB24650103C0EE24FF24870111969C91E5
:10028000D20111968C91981709F445C0992339F041
:10029000A80197012A193B094C095D0906C0A6016E
:1002A00095012E193F09400B510B57FD08C01182D3
:1002B0003382228224833583468357831DC081E0A5
:1002C00081833382228288279927DC01821B930B4A
:1002D000A40BB50B84839583A683B7830DC0220F2F
:1002E000331F441F551F24833583468357838281E0
:1002F000938101979383828324813581468157813D
:10030000DA01C9010197A109B1098F5F9F4FAF4F72
:10031000BF4328F30BC0918333822282EA0CFB1C7B
:100320000C1D1D1DE482F5820683178383E0808304
:10033000248135814681578157FF1AC0C901AA27F8
:1003400097FDA095BA2F81709070A070B0705695EF
:10035000479537952795822B932BA42BB52B848318
:100360009583A683B7838281938101969383828349
:10037000DF0101C0D201CD01CDB7DEB7E2E10C94BF
:10038000CA1DA0E2B0E0E7ECF1E00C94BA1D69836D
:100390007A838B839C832D833E834F835887E9E048
:1003A000EE2EF12CEC0EFD1ECE010196B7010E943F
:1003B000D2048E010F5E1F4FCE010596B8010E9438
:1003C000D2048A8991E089278A8BC701B801AE01DE
:1003D000475E5F4F0E9475000E94FD03A096E6E015
:1003E0000C94D61DA0E2B0E0E8EFF1E00C94BA1D49
:1003F00069837A838B839C832D833E834F835887C5
:10040000F9E0EF2EF12CEC0EFD1ECE010196B701A6
:100410000E94D2048E010F5E1F4FCE010596B801D7
:100420000E94D204C701B801AE01475E5F4F0E942F
:1004300075000E94FD03A096E6E00C94D61DA0E294
:10044000B0E0E5E2F2E00C94AE1D69837A838B8321
:100450009C832D833E834F835887CE010196BE0136
:10046000675F7F4F0E94D204CE010596BE016F5E8A
:100470007F4F0E94D2049985923088F0898982301A
:10048000C8F0943019F4823051F404C0843029F457
:10049000923081F486EE90E0C6C0923049F420E0BC
:1004A0009A858A89981321E02A87CE010996BBC0D4
:1004B000823049F420E09A858A89981321E02A8BBA
:1004C000CE014196B0C02D843E844F8458886D88FB
:1004D0007E888F88988CEE24FF248701AA24BB2471
:1004E000650140E050E060E070E0E0E0F0E0C10174
:1004F00081709070892BE9F0E60CF71C081D191D1E
:100500009A01AB012A0D3B1D4C1D5D1D80E090E062
:10051000A0E0B0E0E614F7040805190520F481E036
:1005200090E0A0E0B0E0BA01A901480F591F6A1F8E
:100530007B1FAA0CBB1CCC1CDD1C97FE08C081E0F5
:1005400090E0A0E0B0E0A82AB92ACA2ADB2A3196B6
:10055000E032F10549F0660C771C881C991C569412
:10056000479437942794C3CFFA85EA892B893C892D
:100570008B859C85280F391F2E5F3F4F17C0CA01FE
:1005800081709070892B61F016950795F794E79428
:1005900080E090E0A0E0B0E8E82AF92A0A2B1B2BC3
:1005A00076956795579547952F5F3F4F77FDE7CF36
:1005B0000CC0440F551F661F771F17FD4160EE0CDE
:1005C000FF1C001F111F21503040403090E05907A0
:1005D00090E0690790E4790760F32B8F3C8FDB0193
:1005E000CA018F779070A070B07080349105A1051A
:1005F000B10561F447FD0AC0E114F10401051105DC
:1006000029F0405C5F4F6F4F7F4F40781A8EFE1786
:1006100011F081E08A8F4D8F5E8F6F8F78A383E01A
:10062000898FCE0149960E94FD03A096E2E10C94C9
:10063000CA1DA8E1B0E0EFE1F3E00C94BA1D6983B4
:100640007A838B839C832D833E834F83588789E0F5
:10065000E82EF12CEC0EFD1ECE010196B7010E9492
:10066000D2048E010F5E1F4FCE010596B8010E9485
:10067000D2048985823040F08989823028F0C70110
:10068000B8010E944A0501C08FEF6896E6E00C941D
:10069000D61DA8E1B0E0EFE4F3E00C94BA1D698345
:1006A0007A838B839C832D833E834F83588789E095
:1006B000E82EF12CEC0EFD1ECE010196B7010E9432
:1006C000D2048E010F5E1F4FCE010596B8010E9425
:1006D000D2048985823040F08989823028F0C701B0
:1006E000B8010E944A0501C08FEF6896E6E00C94BD
:1006F000D61DA8E1B0E0EFE7F3E00C94BA1D6983E2
:100700007A838B839C832D833E834F83588789E034
:10071000E82EF12CEC0EFD1ECE010196B7010E94D1
:10072000D2048E010F5E1F4FCE010596B8010E94C4
:10073000D2048985823040F08989823028F0C7014F
:10074000B8010E944A0501C081E06896E6E00C9479
:10075000D61DACE0B0E0EFEAF3E00C94BE1D698377
:100760007A838B839C83CE010196BE016B5F7F4FA2
:100770000E94D2048D81823061F1823050F1843048
:1007800021F48E81882351F12EC02F81388537FDC9
:1007900020C06E812F3131051CF06623F9F023C093
:1007A0008EE190E0821B930B29853A854B855C8511
:1007B00004C056954795379527958A95D2F76623B5
:1007C000B1F050954095309521953F4F4F4F5F4F79
:1007D0000EC020E030E040E050E009C02FEF3FEFD6
:1007E0004FEF5FE704C020E030E040E050E8B9019F
:1007F000CA012C96E2E00C94DA1DDF92EF92FF9290
:100800000F931F93FC01E480F58006811781D1804E
:100810008081823048F480E090E0A0E1B0E0E82AF6
:10082000F92A0A2B1B2BA5C0843009F49FC0823003
:1008300021F4EE24FF24870105C0E114F104010531
:10084000110519F4E0E0F0E096C0628173819FEF3A
:10085000623879070CF05BC022E83FEF261B370BAC
:100860002A3131052CF020E030E040E050E02AC091
:10087000B801A701022E04C0769567955795479554
:100880000A94D2F781E090E0A0E0B0E004C0880FC5
:10089000991FAA1FBB1F2A95D2F70197A109B10979
:1008A0008E219F21A023B1230097A105B10521F03E
:1008B00081E090E0A0E0B0E09A01AB01282B392B59
:1008C0004A2B5B2BDA01C9018F779070A070B07052
:1008D00080349105A105B10539F427FF09C0205CDA
:1008E0003F4F4F4F5F4F04C0215C3F4F4F4F5F4F13
:1008F000E0E0F0E02030A0E03A07A0E04A07A0E402
:100900005A0710F0E1E0F0E079018A0127C0603871
:10091000710564F5FB01E158FF4FD801C7018F77DE
:100920009070A070B07080349105A105B10539F4C4
:10093000E7FE0DC080E490E0A0E0B0E004C08FE3EB
:1009400090E0A0E0B0E0E80EF91E0A1F1B1F17FFA1
:1009500005C016950795F794E794319687E01695AC
:100960000795F794E7948A95D1F705C0EE24FF2404
:100970008701EFEFF0E06E2F679566276795902F60
:100980009F77D794DD24D7948E2F8695492F462BB9
:10099000582F5D29B701CA011F910F91FF90EF9069
:1009A000DF900895FC01DB01408151812281622F9B
:1009B0006F7770E0221F2227221F9381892F880FD3
:1009C000822B282F30E0991F9927991F11969C930D
:1009D000119721153105A9F54115510561057105DD
:1009E00011F482E037C082E89FEF13969C938E93B8
:1009F00012979A01AB0167E0220F331F441F551F66
:100A00006A95D1F783E08C930DC0220F331F441FEA
:100A1000551F12968D919C911397019713969C9355
:100A20008E931297203080E0380780E0480780E4FA
:100A3000580758F314962D933D934D935C93179755
:100A400008952F3F310579F4411551056105710570
:100A500019F484E08C93089564FF03C081E08C93C3
:100A600012C01C9210C02F57304013963C932E9307
:100A7000129783E08C9387E0440F551F661F771F02
:100A80008A95D1F7706414964D935D936D937C9322
:100A9000179708951F93DC01FB019C91923008F495
:100AA00047C08081823008F443C0943051F41196DD
:100AB0001C91843099F58181682F70E0611B710968
:100AC0003FC0843021F0923031F48230B9F181811D
:100AD000882389F12DC011961C9111978230F1F075
:100AE00081811817D9F412962D913C911397828128
:100AF00093818217930794F028173907BCF0149656
:100B00008D919D910D90BC91A02D248135814681C0
:100B10005781281739074A075B0718F4112341F05A
:100B20000AC082179307A407B50740F4112319F0F0
:100B300061E070E005C06FEF7FEF02C060E070E041
:100B4000CB011F910895DF93CF93CDB7DEB782E03D
:100B500067E041E00E94C705CF91DF910895DF93E0
:100B6000CF93CDB7DEB782E067E041E00E94B206E6
:100B7000CF91DF910895DF93CF93CDB7DEB782E0B9
:100B800067E040E00E94B206CF91DF910895DF93C5
:100B9000CF9300D000D00F92CDB7DEB789836A83A0
:100BA0004B838A81883008F0D5C08981843008F071
:100BB000D1C08981282F30E03D832C838C819D8199
:100BC0008130910509F443C02C813D8122303105EB
:100BD0002CF48C819D81009771F0BCC02C813D81EB
:100BE0002230310509F45FC08C819D8183309105ED
:100BF00009F485C0AFC08B818130A1F4AAE3B0E0D5
:100C0000EAE3F0E08081482F8A81282F30E081E0FC
:100C100090E0022E02C0880F991F0A94E2F7842BFD
:100C20008C9398C0AAE3B0E0EAE3F0E08081482F1B
:100C30008A81282F30E081E090E0022E02C0880FE8
:100C4000991F0A94E2F7809584238C9383C08B814B
:100C50008130A1F4A7E3B0E0E7E3F0E08081482F22
:100C60008A81282F30E081E090E0022E02C0880FB8
:100C7000991F0A94E2F7842B8C936CC0A7E3B0E031
:100C8000E7E3F0E08081482F8A81282F30E081E07F
:100C900090E0022E02C0880F991F0A94E2F7809517
:100CA00084238C9357C08B818130A1F4A4E3B0E0FE
:100CB000E4E3F0E08081482F8A81282F30E081E052
:100CC00090E0022E02C0880F991F0A94E2F7842B4D
:100CD0008C9340C0A4E3B0E0E4E3F0E08081482FCF
:100CE0008A81282F30E081E090E0022E02C0880F38
:100CF000991F0A94E2F7809584238C932BC08B81F3
:100D00008130A1F4A1E3B0E0E1E3F0E08081482F7D
:100D10008A81282F30E081E090E0022E02C0880F07
:100D2000991F0A94E2F7842B8C9314C0A1E3B0E0DE
:100D3000E1E3F0E08081482F8A81282F30E081E0D4
:100D400090E0022E02C0880F991F0A94E2F7809566
:100D500084238C930F900F900F900F900F90CF9152
:100D6000DF910895DF93CF9300D000D00F92CDB7DD
:100D7000DEB789836A834B838A81883008F0D5C0C7
:100D80008981843008F0D1C08981282F30E03D83EB
:100D90002C838C819D818130910509F443C02C8185
:100DA0003D81223031052CF48C819D81009771F0BA
:100DB000BCC02C813D812230310509F45FC08C819B
:100DC0009D818330910509F485C0AFC08B8181304E
:100DD000A1F4ABE3B0E0EBE3F0E08081482F8A813F
:100DE000282F30E081E090E0022E02C0880F991F8A
:100DF0000A94E2F7842B8C9398C0ABE3B0E0EBE36A
:100E0000F0E08081482F8A81282F30E081E090E057
:100E1000022E02C0880F991F0A94E2F7809584235E
:100E20008C9383C08B818130A1F4A8E3B0E0E8E328
:100E3000F0E08081482F8A81282F30E081E090E027
:100E4000022E02C0880F991F0A94E2F7842B8C931C
:100E50006CC0A8E3B0E0E8E3F0E08081482F8A812D
:100E6000282F30E081E090E0022E02C0880F991F09
:100E70000A94E2F7809584238C9357C08B8181304C
:100E8000A1F4A5E3B0E0E5E3F0E08081482F8A819A
:100E9000282F30E081E090E0022E02C0880F991FD9
:100EA0000A94E2F7842B8C9340C0A5E3B0E0E5E31D
:100EB000F0E08081482F8A81282F30E081E090E0A7
:100EC000022E02C0880F991F0A94E2F780958423AE
:100ED0008C932BC08B818130A1F4A2E3B0E0E2E3DC
:100EE000F0E08081482F8A81282F30E081E090E077
:100EF000022E02C0880F991F0A94E2F7842B8C936C
:100F000014C0A2E3B0E0E2E3F0E08081482F8A81E0
:100F1000282F30E081E090E0022E02C0880F991F58
:100F20000A94E2F7809584238C930F900F900F9092
:100F30000F900F90CF91DF910895DF93CF9300D062
:100F400000D00F92CDB7DEB78A836B8319828B8175
:100F5000883008F084C08A81843008F080C08A819B
:100F6000282F30E03D832C834C815D814130510539
:100F700079F18C819D818230910534F42C813D8101
:100F80002115310569F06BC04C815D8142305105FE
:100F9000B9F18C819D818330910509F449C05FC00E
:100FA000E9E3F0E08081282F30E08B81882F90E00A
:100FB000A90102C0559547958A95E2F7CA0181704B
:100FC0009070882319F081E0898349C0198247C055
:100FD000E6E3F0E08081282F30E08B81882F90E0DD
:100FE000A90102C0559547958A95E2F7CA0181701B
:100FF0009070882319F081E0898331C019822FC055
:10100000E3E3F0E08081282F30E08B81882F90E0AF
:10101000A90102C0559547958A95E2F7CA018170EA
:101020009070882319F081E0898319C0198217C054
:10103000E0E3F0E08081282F30E08B81882F90E082
:10104000A90102C0559547958A95E2F7CA018170BA
:101050009070882319F081E0898301C01982898109
:101060000F900F900F900F900F90CF91DF910895F8
:10107000DF93CF9300D000D0CDB7DEB789836A83EA
:101080008981843090F58981282F30E03C832B833F
:101090008B819C8181309105D1F02B813C81223064
:1010A00031052CF48B819C81009761F01EC02B814F
:1010B0003C812230310581F08B819C818330910508
:1010C00081F013C0EAE3F0E08A8180830EC0E7E399
:1010D000F0E08A81808309C0E4E3F0E08A818083C4
:1010E00004C0E1E3F0E08A8180830F900F900F90BD
:1010F0000F90CF91DF910895DF93CF9300D000D070
:10110000CDB7DEB789836A838981843090F5898180
:10111000282F30E03C832B838B819C81813091058B
:10112000D1F02B813C81223031052CF48B819C81C4
:10113000009761F01EC02B813C812230310581F087
:101140008B819C818330910581F013C0EBE3F0E04B
:101150008A8180830EC0E8E3F0E08A81808309C041
:10116000E5E3F0E08A81808304C0E2E3F0E08A8175
:1011700080830F900F900F900F90CF91DF91089583
:10118000DF93CF9300D000D0CDB7DEB78A8319822A
:101190008A81843090F58A81282F30E03C832B832C
:1011A0008B819C8181309105D1F02B813C81223053
:1011B00031052CF48B819C81009761F01EC02B813E
:1011C0003C812230310581F08B819C8183309105F7
:1011D00081F013C0E9E3F0E0808189830EC0E6E38B
:1011E000F0E08081898309C0E3E3F0E080818983B6
:1011F00004C0E0E3F0E08081898389810F900F9043
:101200000F900F90CF91DF910895DF93CF9300D08F
:101210000F92CDB7DEB719821B8243C081E060E038
:101220000E9438088B81982F9C5F81E0692F41E0F4
:101230000E94C7058B81882F90E09C012C5F3F4F57
:1012400081E090E002C0880F991F2A95E2F780950F
:10125000898381E069810E947C081A821CC081E038
:101260006A810E949D07882399F48A81882F90E0E3
:10127000880F991F880F991F982F8B81890F8F5F77
:101280000E9456090F900F900F90CF91DF91089513
:101290008A818F5F8A838A81843008F38B818F5F94
:1012A0008B838B81843008F4B9CFB6CFDF93CF9393
:1012B00000D000D0CDB7DEB78A8319828A81282F6B
:1012C00030E03C832B838B819C818830910509F42D
:1012D00070C02B813C81293031055CF58B819C816C
:1012E0008430910509F459C02B813C8125303105AA
:1012F0009CF48B819C818230910509F448C02B813C
:101300003C81233031050CF045C08B819C818130BC
:10131000910509F439C067C02B813C812630310525
:1013200009F441C08B819C81873091050CF03EC04F
:1013300037C02B813C812C30310509F446C08B81AC
:101340009C818D3091055CF42B813C812A303105E4
:10135000B1F18B819C818B309105A4F52DC02B813F
:101360003C812E303105B9F18B819C818E30910505
:101370007CF12B813C812F30310579F18B819C816F
:101380008031910569F12FC087E089832EC088E004
:1013900089832BC089E0898328C085E2898325C0A1
:1013A00084E0898322C085E089831FC086E0898329
:1013B0001CC08AE2898319C081E0898316C082E05B
:1013C000898313C083E0898310C08DE289830DC0B7
:1013D0008DE089830AC0198208C08DE3898305C026
:1013E0008BE2898302C08A81898389810F900F9063
:1013F0000F900F90CF91DF910895DF93CF93CDB7EA
:10140000DEB782E060E041E00E94C70582E066E06E
:1014100041E00E94C70582E061E041E00E94C7050B
:1014200080E06FEF0E94380888E30E94200A8CE079
:101430000E94200A81E00E94200ACF91DF91089546
:10144000DF93CF93CDB7DEB7E9970FB6F894DEBF41
:101450000FBECDBF89AF82E060E040E00E94B206DF
:1014600082E066E040E00E94B20680E090E0A0E802
:10147000BFE38DAB9EABAFABB8AF6DA97EA98FA913
:1014800098AD20E030E04AE753E40E941F02DC01FF
:10149000CB0189AB9AABABABBCAB69A97AA98BA9E1
:1014A0009CA920E030E040E85FE30E9479038823B4
:1014B0002CF481E090E098AB8FA73FC069A97AA98E
:1014C0008BA99CA920E03FEF4FE757E40E94190346
:1014D00018164CF56DA97EA98FA998AD20E030E0D3
:1014E00040E251E40E941F02DC01CB01BC01CD01AE
:1014F0000E944900DC01CB0198AB8FA70FC089E1A6
:1015000090E09EA78DA78DA59EA50197F1F79EA7B8
:101510008DA78FA598A9019798AB8FA78FA598A99C
:10152000009769F714C069A97AA98BA99CA90E94A0
:101530004900DC01CB0198AB8FA78FA598A99CA788
:101540008BA78BA59CA50197F1F79CA78BA782E0A1
:1015500061E041E00E94B20680E090E0A0E8BFE3D5
:101560008FA398A7A9A7BAA76FA178A589A59AA5BF
:1015700020E030E04AE753E40E941F02DC01CB0187
:101580008BA39CA3ADA3BEA36BA17CA18DA19EA1A7
:1015900020E030E040E85FE30E94790388232CF4E8
:1015A00081E090E09AA389A33FC06BA17CA18DA1AB
:1015B0009EA120E03FEF4FE757E40E941903181661
:1015C0004CF56FA178A589A59AA520E030E040E20E
:1015D00051E40E941F02DC01CB01BC01CD010E943D
:1015E0004900DC01CB019AA389A30FC089E190E0F7
:1015F00098A38F8F8F8D98A10197F1F798A38F8F64
:1016000089A19AA101979AA389A389A19AA1009778
:1016100069F714C06BA17CA18DA19EA10E94490015
:10162000DC01CB019AA389A389A19AA19E8F8D8FFA
:101630008D8D9E8D0197F1F79E8F8D8F80E069AD26
:101640000E947C0880E090E0A0E8BFE3898F9A8F39
:10165000AB8FBC8F698D7A8D8B8D9C8D20E030E0B7
:101660004AE753E40E941F02DC01CB018D8B9E8B65
:10167000AF8BB88F6D897E898F89988D20E030E09F
:1016800040E85FE30E94790388232CF481E090E036
:101690009C8B8B8B3FC06D897E898F89988D20E0D4
:1016A0003FEF4FE757E40E94190318164CF5698D78
:1016B0007A8D8B8D9C8D20E030E040E251E40E94D9
:1016C0001F02DC01CB01BC01CD010E944900DC01FD
:1016D000CB019C8B8B8B0FC089E190E09A8B898B1F
:1016E00089899A890197F1F79A8B898B8B899C89D3
:1016F00001979C8B8B8B8B899C89009769F714C011
:101700006D897E898F89988D0E944900DC01CB010B
:101710009C8B8B8B8B899C89988B8F878F859889E5
:101720000197F1F7988B8F8782E061E040E00E949B
:10173000B20680E090E0A0E8BFE38B879C87AD878E
:10174000BE876B857C858D859E8520E030E04AE7ED
:1017500053E40E941F02DC01CB018F839887A98785
:10176000BA876F81788589859A8520E030E040E8E6
:101770005FE30E94790388232CF481E090E09E834C
:101780008D833FC06F81788589859A8520E03FEF02
:101790004FE757E40E94190318164CF56B857C85BA
:1017A0008D859E8520E030E040E251E40E941F02DA
:1017B000DC01CB01BC01CD010E944900DC01CB0161
:1017C0009E838D830FC089E190E09C838B838B8106
:1017D0009C810197F1F79C838B838D819E8101977A
:1017E0009E838D838D819E81009769F714C06F81E0
:1017F000788589859A850E944900DC01CB019E830A
:101800008D838D819E819A83898389819A810197B5
:10181000F1F79A838983E9960FB6F894DEBF0FBE7D
:10182000CDBFCF91DF910895DF93CF93CDB7DEB7D2
:10183000E9970FB6F894DEBF0FBECDBF89AF82E047
:1018400060E041E00E94B20682E066E040E00E9473
:10185000B20680E090E0A0E8BFE38DAB9EABAFABFB
:10186000B8AF6DA97EA98FA998AD20E030E04AE716
:1018700053E40E941F02DC01CB0189AB9AABABABF6
:10188000BCAB69A97AA98BA99CA920E030E040E80B
:101890005FE30E94790388232CF481E090E098AB09
:1018A0008FA73FC069A97AA98BA99CA920E03FEF27
:1018B0004FE757E40E94190318164CF56DA97EA94D
:1018C0008FA998AD20E030E040E251E40E941F0271
:1018D000DC01CB01BC01CD010E944900DC01CB0140
:1018E00098AB8FA70FC089E190E09EA78DA78DA52B
:1018F0009EA50197F1F79EA78DA78FA598A901979F
:1019000098AB8FA78FA598A9009769F714C069A90C
:101910007AA98BA99CA90E944900DC01CB0198AB54
:101920008FA78FA598A99CA78BA78BA59CA501978E
:10193000F1F79CA78BA782E061E041E00E94B2062C
:1019400080E090E0A0E8BFE38FA398A7A9A7BAA77B
:101950006FA178A589A59AA520E030E04AE753E475
:101960000E941F02DC01CB018BA39CA3ADA3BEA3ED
:101970006BA17CA18DA19EA120E030E040E85FE357
:101980000E94790388232CF481E090E09AA389A334
:101990003FC06BA17CA18DA19EA120E03FEF4FE74E
:1019A00057E40E94190318164CF56FA178A589A574
:1019B0009AA520E030E040E251E40E941F02DC01E1
:1019C000CB01BC01CD010E944900DC01CB019AA3EF
:1019D00089A30FC089E190E098A38F8F8F8D98A184
:1019E0000197F1F798A38F8F89A19AA101979AA3E4
:1019F00089A389A19AA1009769F714C06BA17CA162
:101A00008DA19EA10E944900DC01CB019AA389A36C
:101A100089A19AA19E8F8D8F8D8D9E8D0197F1F753
:101A20009E8F8D8F80E069AD0E947C0880E090E001
:101A3000A0E8BFE3898F9A8FAB8FBC8F698D7A8DB9
:101A40008B8D9C8D20E030E04AE753E40E941F021A
:101A5000DC01CB018D8B9E8BAF8BB88F6D897E891E
:101A60008F89988D20E030E040E85FE30E947903A1
:101A700088232CF481E090E09C8B8B8B3FC06D8998
:101A80007E898F89988D20E03FEF4FE757E40E94D1
:101A9000190318164CF5698D7A8D8B8D9C8D20E07D
:101AA00030E040E251E40E941F02DC01CB01BC01A6
:101AB000CD010E944900DC01CB019C8B8B8B0FC0B8
:101AC00089E190E09A8B898B89899A890197F1F74E
:101AD0009A8B898B8B899C8901979C8B8B8B8B89AB
:101AE0009C89009769F714C06D897E898F89988DCC
:101AF0000E944900DC01CB019C8B8B8B8B899C89DC
:101B0000988B8F878F8598890197F1F7988B8F87AE
:101B100082E061E040E00E94B20680E090E0A0E850
:101B2000BFE38B879C87AD87BE876B857C858D8562
:101B30009E8520E030E04AE753E40E941F02DC016A
:101B4000CB018F839887A987BA876F81788589852C
:101B50009A8520E030E040E85FE30E947903882323
:101B60002CF481E090E09E838D833FC06F81788567
:101B700089859A8520E03FEF4FE757E40E941903DB
:101B800018164CF56B857C858D859E8520E030E0B0
:101B900040E251E40E941F02DC01CB01BC01CD01F7
:101BA0000E944900DC01CB019E838D830FC089E137
:101BB00090E09C838B838B819C810197F1F79C83C0
:101BC0008B838D819E8101979E838D838D819E81E4
:101BD000009769F714C06F81788589859A850E947E
:101BE0004900DC01CB019E838D838D819E819A8388
:101BF000898389819A810197F1F79A838983E9968C
:101C00000FB6F894DEBF0FBECDBFCF91DF91089520
:101C1000DF93CF9300D00F92CDB7DEB79B838A833B
:101C200019820EC08981282F30E08A819B81FC01B6
:101C3000E20FF31F80810E94140C89818F5F8983DA
:101C40008981282F30E08A819B81FC01E20FF31FFC
:101C50008081882339F70F900F900F90CF91DF91FB
:101C60000895DF93CF9300D000D00F92CDB7DEB7A9
:101C70008A836B838A81282F30E03D832C838C817B
:101C80009D8181309105C1F02C813D81223031054B
:101C90002CF48C819D81009761F019C02C813D81CD
:101CA0002230310569F08C819D818330910561F08E
:101CB0000EC08B8189830BC08B81805C898307C0B8
:101CC0008B81805F898303C08B81805B898389815D
:101CD00080680E94200A0F900F900F900F900F9035
:101CE000CF91DF910895DF93CF9300D000D0CDB78F
:101CF000DEB789836A835C834B8389816A810E9412
:101D0000310E8B819C810E94080E0F900F900F90D6
:101D10000F90CF91DF910895DF93CF93CDB7DEB7CA
:101D200062970FB6F894DEBF0FBECDBF9A8B898B3A
:101D300089899A899E012F5F3F4FB9014AE050E09F
:101D40000E94E51DCE0101960E94080E62960FB614
:101D5000F894DEBF0FBECDBFCF91DF910895DF9322
:101D6000CF93CDB7DEB781E00E94200ACF91DF91FB
:101D70000895DF93CF9300D0CDB7DEB79A838983E0
:101D8000ECE4F0E011821082E6E4F0E083EC99E00C
:101D900091838083EAE4F0E089819A819183808352
:101DA000AFE4B0E0EFE4F0E0808182688C93AEE4D1
:101DB000B0E0EEE4F0E080818A618C930F900F90A8
:101DC000CF91DF910895DF93CF9300D0CDB7DEB7E9
:101DD0001A82198212C08981882F90E00E94061E03
:101DE0008A838A818F3F21F481E08093FC0002C0C6
:101DF0001092FC0089818F5F89838981853058F337
:101E00000F900F90CF91DF910895DF93CF93CDB7CF
:101E1000DEB78091EE00882F90E00E94061E80932E
:101E2000FD008091EF00882F90E00E94061E8093B5
:101E300003018091F000882F90E00E94061E80939D
:101E40000401CF91DF9108950F931F93DF93CF93F8
:101E5000CDB7DEB72F970FB6F894DEBF0FBECDBF5C
:101E60001F8681E060E00E94310E1F8681C08F8551
:101E7000082F10E00E940509F801EE50FF4F808303
:101E80008AE20E94140C80E090E0AAEFB3E48B8712
:101E90009C87AD87BE876B857C858D859E8520E080
:101EA00030E04AE753E40E941F02DC01CB018F833C
:101EB0009887A987BA876F81788589859A8520E078
:101EC00030E040E85FE30E94790388232CF481E04E
:101ED00090E09E838D833FC06F81788589859A8548
:101EE00020E03FEF4FE757E40E94190318164CF526
:101EF0006B857C858D859E8520E030E040E251E455
:101F00000E941F02DC01CB01BC01CD010E944900EF
:101F1000DC01CB019E838D830FC089E190E09C831F
:101F20008B838B819C810197F1F79C838B838D81BF
:101F30009E8101979E838D838D819E81009769F795
:101F400014C06F81788589859A850E944900DC01DB
:101F5000CB019E838D838D819E819A838983898124
:101F60009A810197F1F79A8389838F858F5F8F8795
:101F70008F85853008F47BCF2F960FB6F894DEBF9F
:101F80000FBECDBFCF91DF911F910F9108950F9399
:101F90001F93DF93CF93CDB7DEB72F970FB6F8948B
:101FA000DEBF0FBECDBF1F8681E060E00E94310E14
:101FB0001F8681C08F85082F10E00E940509F80157
:101FC000E950FF4F80838AE20E94140C80E090E089
:101FD000AAEFB3E48B879C87AD87BE876B857C8532
:101FE0008D859E8520E030E04AE753E40E941F0281
:101FF000DC01CB018F839887A987BA876F817885A9
:1020000089859A8520E030E040E85FE30E9479030B
:1020100088232CF481E090E09E838D833FC06F8104
:10202000788589859A8520E03FEF4FE757E40E9445
:10203000190318164CF56B857C858D859E8520E0EF
:1020400030E040E251E40E941F02DC01CB01BC0100
:10205000CD010E944900DC01CB019E838D830FC01E
:1020600089E190E09C838B838B819C810197F1F7C0
:102070009C838B838D819E8101979E838D838D812F
:102080009E81009769F714C06F81788589859A854C
:102090000E944900DC01CB019E838D838D819E814E
:1020A0009A83898389819A810197F1F79A83898339
:1020B0008F858F5F8F878F85853008F47BCF2F9634
:1020C0000FB6F894DEBF0FBECDBFCF91DF911F9149
:1020D0000F910895DF93CF93CDB7DEB70E94AF0E77
:1020E00080E690E00E94080E0E94240FCF91DF91BD
:1020F0000895DF93CF93CDB7DEB70E94AF0E8AE687
:1021000090E00E94080E0E94C70FCF91DF910895C2
:10211000DF93CF9300D000D00F92CDB7DEB79B8373
:102120008A837D836C8319821AC08981282F30E0CD
:102130008A819B81FC01E20FF31F40818981282F56
:1021400030E08C819D81FC01E20FF31F80814817F4
:1021500019F01092FE0009C089818F5F89838981FF
:10216000853018F381E08093FE000F900F900F9060
:102170000F900F90CF91DF910895DF93CF930F923F
:10218000CDB7DEB7198212C08981882F90E0AC01EB
:102190008981882F90E0FC01EE50FF4F2081CA0119
:1021A000622F0E940E1E89818F5F8983898185300D
:1021B00058F31092FC000F90CF91DF9108950F9388
:1021C0001F93DF93CF930F92CDB7DEB719820FC065
:1021D0008981082F10E08981882F90E00E94061ED7
:1021E000F801E950FF4F808389818F5F898389815E
:1021F000853070F30F90CF91DF911F910F9108956B
:10220000DF93CF93CDB7DEB70E94AF0E88E790E0A3
:102210000E94080E81E060E00E94310E84E890E0A8
:102220000E94080ECF91DF910895DF93CF93CDB731
:10223000DEB70E94AF0E83E990E00E94080E0E9474
:10224000240FCF91DF910895DF93CF93CDB7DEB701
:102250000E94AF0E8FE990E00E94080E0E94240FAA
:10226000CF91DF9108950F931F93DF93CF93CDB755
:10227000DEB7CB57D0400FB6F894DEBF0FBECDBF50
:1022800078940E94FD098FEA90E00E94080EFE01FA
:10229000E359FF4F80E090E8ABE3B5E4808391839E
:1022A000A283B3838E0107591F4FFE01E359FF4FED
:1022B000608171818281938120E030E04AE753E4BC
:1022C0000E941F02DC01CB01F80180839183A2836D
:1022D000B383FE01E759FF4F608171818281938151
:1022E00020E030E040E85FE30E947903882344F473
:1022F000FE01E959FF4F81E090E09183808364C043
:10230000FE01E759FF4F608171818281938120E056
:102310003FEF4FE757E40E94190318160CF043C033
:10232000FE01E359FF4F608171818281938120E03A
:1023300030E040E251E40E941F02DC01CB018E013B
:1023400009591F4FBC01CD010E944900DC01CB019E
:10235000F801918380831FC0FE01EB59FF4F89E193
:1023600090E091838083FE01EB59FF4F8081918142
:102370000197F1F7FE01EB59FF4F91838083DE0156
:10238000A959BF4FFE01E959FF4F80819181019703
:1023900011969C938E93FE01E959FF4F80819181A4
:1023A0000097D1F627C08E0109591F4FFE01E7594A
:1023B000FF4F60817181828193810E944900DC011D
:1023C000CB01F80191838083DE01AD59BF4FFE013F
:1023D000E959FF4F808191818D939C93FE01ED59C6
:1023E000FF4F808191810197F1F7FE01ED59FF4F79
:1023F0009183808360E875E280E090E00E94401D58
:102400000E94A305FE01EE58FF4F1082FE01EE5818
:10241000FF4F1182FE01EE58FF4F1282FE01EE586F
:10242000FF4F85E08383FE01EA58FF4F1082FE01D3
:10243000EA58FF4F1182FE01EA58FF4F1282FE0157
:10244000EA58FF4F85E08383CE018A589F4F0E9450
:10245000941B83E067E041E00E94C70583E067E0EA
:1024600040E00E94B20683E066E041E00E94C705BA
:1024700083E064E041E00E94C70583E066E040E05D
:102480000E94B20683E064E040E00E94B20683E06E
:1024900065E041E00E94C70583E062E040E00E9401
:1024A000C70583E063E040E00E94C7050E94E30E99
:1024B0008091FC00882389F00E946A100E947910A4
:1024C00082EF90E027EF30E0B9010E948810809100
:1024D000FE00882389F30E94BD100E94050F8091A1
:1024E000FD00882379F08CE790E00E94B90E1092ED
:1024F000FD008091EE00882F90E02091FD00622F7A
:102500000E940E1E80910301882331F483E064E071
:1025100040E00E94B20609C080910301813029F495
:1025200083E064E041E00E94B206809104018823C8
:1025300031F483E066E040E00E94B20609C0809179
:102540000401813029F483E066E041E00E94B20694
:102550000E9400110E940509FE01EF58FF4F808381
:10256000FE01E15AFF4F80E090E0AAEFB3E48083E0
:102570009183A283B3838E01055A1F4FFE01E15A56
:10258000FF4F608171818281938120E030E04AE7D2
:1025900053E40E941F02DC01CB01F8018083918388
:1025A000A283B383FE01E55AFF4F6081718182816E
:1025B000938120E030E040E85FE30E9479038823C4
:1025C00044F4FE01E75AFF4F81E090E0918380835D
:1025D00064C0FE01E55AFF4F608171818281938161
:1025E00020E03FEF4FE757E40E94190318160CF064
:1025F00043C0FE01E15AFF4F608171818281938166
:1026000020E030E040E251E40E941F02DC01CB01F7
:102610008E01075A1F4FBC01CD010E944900DC0109
:10262000CB01F801918380831FC0FE01E95AFF4F5F
:1026300089E190E091838083FE01E95AFF4F808118
:1026400091810197F1F7FE01E95AFF4F9183808351
:10265000DE01A75ABF4FFE01E75AFF4F80819181EB
:10266000019711969C938E93FE01E75AFF4F80814C
:1026700091810097D1F628C08E01075A1F4FFE01A5
:10268000E55AFF4F60817181828193810E944900E8
:10269000DC01CB01F80191838083DE01AB5ABF4F8F
:1026A000FE01E75AFF4F8081918111969C938E9392
:1026B000FE01EB5AFF4F808191810197F1F7FE01F6
:1026C000EB5AFF4F91838083FE01EF58FF4F8081CB
:1026D000282F30E0EC963FAF2EAFEC97EC968EAD06
:1026E0009FADEC978B32910549F0EC96EEADFFADC6
:1026F000EC97ED32F10509F48DC22ACF0E94151135
:102700000E94DF1082EF90E027EF30E0B9010E94D5
:1027100088108091FE00882309F064C18091FF0039
:102720008F5F8093FF008091FF00833039F781E055
:10273000809300010E94AF0E27EB30E080E063E061
:10274000A9010E94730EFE01EF5AFF4F80E090E056
:10275000A0E8BFE380839183A283B3838E01035BF0
:102760001F4FFE01EF5AFF4F60817181828193817B
:1027700020E030E04AE753E40E941F02DC01CB0175
:10278000F80180839183A283B383FE01E35BFF4F53
:10279000608171818281938120E030E040E85FE3D5
:1027A0000E947903882344F4FE01E55BFF4F81E03A
:1027B00090E09183808364C0FE01E35BFF4F608102
:1027C00071818281938120E03FEF4FE757E40E94BF
:1027D000190318160CF043C0FE01EF5AFF4F608139
:1027E00071818281938120E030E040E251E40E94D7
:1027F0001F02DC01CB018E01055B1F4FBC01CD0127
:102800000E944900DC01CB01F801918380831FC045
:10281000FE01E75BFF4F89E190E091838083FE0139
:10282000E75BFF4F808191810197F1F7FE01E75B44
:10283000FF4F91838083DE01A55BBF4FFE01E55B07
:10284000FF4F80819181019711969C938E93FE0199
:10285000E55BFF4F808191810097D1F627C08E0103
:10286000055B1F4FFE01E35BFF4F60817181828139
:1028700093810E944900DC01CB01F80191838083A0
:10288000DE01A95BBF4FFE01E55BFF4F80819181B7
:102890008D939C93FE01E95BFF4F808191810197AD
:1028A000F1F7FE01E95BFF4F9183808322EC30E07A
:1028B00081E063E0A9010E94730EFE01ED5BFF4F12
:1028C00080E090E0A0E8BFE380839183A283B3839C
:1028D0008E01015C1F4FFE01ED5BFF4F6081718136
:1028E0008281938120E030E04AE753E40E941F0296
:1028F000DC01CB01F80180839183A283B383FE01C5
:10290000FF96608171818281938120E030E040E810
:102910005FE30E94790388232CF481E090E09EAF6E
:102920008DAF46C0FE01FF966081718182819381E7
:1029300020E03FEF4FE757E40E941903181664F5B3
:10294000FE01ED5BFF4F608171818281938120E008
:1029500030E040E251E40E941F02DC01CB01BC01E7
:10296000CD010E944900DC01CB019EAF8DAF0FC0AD
:1029700089E190E09CAF8BAF8BAD9CAD0197F1F7F7
:102980009CAF8BAF8DAD9EAD01979EAF8DAF8DADE2
:102990009EAD009769F716C0FE01FF9660817181B8
:1029A000828193810E944900DC01CB019EAF8DAFF3
:1029B0008DAD9EAD9AAF89AF89AD9AAD0197F1F714
:1029C0009AAF89AFCE018E589F4F0E947C170E940C
:1029D000AF058091FF008823E1F70E94181810923C
:1029E0000001B6CD0E94AF0E80E090E0A0E8BFE30A
:1029F0008DAB9EABAFABB8AF6DA97EA98FA998ADDB
:102A000020E030E04AE753E40E941F02DC01CB01E2
:102A100089AB9AABABABBCAB69A97AA98BA99CA9D2
:102A200020E030E040E85FE30E94790388232CF443
:102A300081E090E098AB8FA73FC069A97AA98BA9E4
:102A40009CA920E03FEF4FE757E40E9419031816B6
:102A50004CF56DA97EA98FA998AD20E030E040E249
:102A600051E40E941F02DC01CB01BC01CD010E9498
:102A70004900DC01CB0198AB8FA70FC089E190E042
:102A80009EA78DA78DA59EA50197F1F79EA78DA75F
:102A90008FA598A9019798AB8FA78FA598A90097A4
:102AA00069F714C069A97AA98BA99CA90E94490059
:102AB000DC01CB0198AB8FA78FA598A99CA78BA70A
:102AC0008BA59CA50197F1F79CA78BA78EEC90E0B6
:102AD0000E94080E80E090E0A0E8BFE38FA398A7D3
:102AE000A9A7BAA76FA178A589A59AA520E030E08B
:102AF0004AE753E40E941F02DC01CB018BA39CA395
:102B0000ADA3BEA36BA17CA18DA19EA120E030E06E
:102B100040E85FE30E94790388232CF481E090E091
:102B20009AA389A33FC06BA17CA18DA19EA120E0A7
:102B30003FEF4FE757E40E94190318164CF56FA1B9
:102B400078A589A59AA520E030E040E251E40E94F2
:102B50001F02DC01CB01BC01CD010E944900DC0158
:102B6000CB019AA389A30FC089E190E098A38F8F2E
:102B70008F8D98A10197F1F798A38F8F89A19AA1C2
:102B800001979AA389A389A19AA1009769F714C014
:102B90006BA17CA18DA19EA10E944900DC01CB010B
:102BA0009AA389A389A19AA19E8F8D8F8D8D9E8DC9
:102BB0000197F1F79E8F8D8F81E060E00E94310ECA
:102BC00085ED90E00E94080E1092FF008AEF90E0E1
:102BD0000E94B90E81E08093FD008091EE00882F65
:102BE00090E02091FD00622F0E940E1E0E940509B8
:102BF0008D30E1F78CE790E00E94B90E1092FD0055
:102C00008091EE00882F90E02091FD00622F0E94BD
:102C10000E1E9ECC0E9424110E94DF1082EF90E0D5
:102C200027EF30E0B9010E9488108091FE008823D0
:102C300009F010C18091FF008F5F8093FF008091A9
:102C4000FF00833039F781E0809300010E94AF0ECE
:102C500027EB30E080E063E0A9010E94730E80E082
:102C600090E0A0E8BFE3898F9A8FAB8FBC8F698D0E
:102C70007A8D8B8D9C8D20E030E04AE753E40E94F2
:102C80001F02DC01CB018D8B9E8BAF8BB88F6D89C2
:102C90007E898F89988D20E030E040E85FE30E94D4
:102CA000790388232CF481E090E09C8B8B8B3FC0D0
:102CB0006D897E898F89988D20E03FEF4FE757E43B
:102CC0000E94190318164CF5698D7A8D8B8D9C8D99
:102CD00020E030E040E251E40E941F02DC01CB0121
:102CE000BC01CD010E944900DC01CB019C8B8B8B88
:102CF0000FC089E190E09A8B898B89899A89019725
:102D0000F1F79A8B898B8B899C8901979C8B8B8B94
:102D10008B899C89009769F714C06D897E898F899A
:102D2000988D0E944900DC01CB019C8B8B8B8B8999
:102D30009C89988B8F878F8598890197F1F7988B5D
:102D40008F8722EC30E081E063E0A9010E94730EDE
:102D500080E090E0A0E8BFE38B879C87AD87BE87CB
:102D60006B857C858D859E8520E030E04AE753E4C5
:102D70000E941F02DC01CB018F839887A987BA8745
:102D80006F81788589859A8520E030E040E85FE3AF
:102D90000E94790388232CF481E090E09E838D8348
:102DA0003FC06F81788589859A8520E03FEF4FE7A6
:102DB00057E40E94190318164CF56B857C858D85A8
:102DC0009E8520E030E040E251E40E941F02DC01D9
:102DD000CB01BC01CD010E944900DC01CB019E83E7
:102DE0008D830FC089E190E09C838B838B819C81D4
:102DF0000197F1F79C838B838D819E8101979E8340
:102E00008D838D819E81009769F714C06F817885CD
:102E100089859A850E944900DC01CB019E838D83C0
:102E20008D819E819A83898389819A810197F1F7A7
:102E30009A838983CE018E589F4F0E947C170E94EF
:102E4000AF058091FF008823E1F70E9418181092C7
:102E500000017ECB1092FF000E946A100E94791040
:102E600082EF90E027EF30E0B9010E948810809156
:102E7000FE00882389F30E94BD106ACB1F920F9237
:102E80000FB60F9211248F93AF93BF93EF93FF93DD
:102E9000DF93CF93CDB7DEB7809101018F5F809331
:102EA000010180910101803F59F4A5E3B0E0E5E321
:102EB000F0E080818F778C93109201011092FF00D7
:102EC000CF91DF91FF91EF91BF91AF918F910F90D3
:102ED0000FBE0F901F9018951F920F920FB60F9272
:102EE0001124DF93CF93CDB7DEB7CF91DF910F9051
:102EF0000FBE0F901F901895DF93CF9300D000D096
:102F0000CDB7DEB79A838983A3E5B0E0E3E5F0E0CF
:102F100080818F778C93E981FA818081282F30E03E
:102F20003C832B838B819C81009731F02B813C81EA
:102F30002130310561F155C0A3E5B0E0E3E5F0E0F3
:102F400080818F7B8C93A3E5B0E0E3E5F0E08081A6
:102F5000877F8C93A3E5B0E0E3E5F0E080818F7E8E
:102F60008C93A3E5B0E0E3E5F0E080818F7D8C9366
:102F7000A9E5B0E0E9E5F0E080818D7F8C93A9E5DB
:102F8000B0E0E9E5F0E0808181608C932AC0A3E5A0
:102F9000B0E0E3E5F0E080818F7B8C93A3E5B0E0C7
:102FA000E3E5F0E0808188608C93A3E5B0E0E3E5A1
:102FB000F0E080818F7E8C93A3E5B0E0E3E5F0E064
:102FC000808180628C93A9E5B0E0E9E5F0E0808142
:102FD0008E7F8C93A9E5B0E0E9E5F0E08081826026
:102FE0008C93A3E5B0E0E3E5F0E08081982F987F33
:102FF000E981FA8183818770892B8C93A2E5B0E007
:10300000E981FA8181818C93ACE5B0E0E981FA81B4
:1030100082818C93AFE5B0E0EFE5F0E080818068DD
:103020008C930F900F900F900F90CF91DF91089598
:10303000DF93CF93CDB7DEB7E3E5F0E01082E2E5B2
:10304000F0E01082ECE5F0E01082A9E5B0E0E9E5FF
:10305000F0E080818D7F8C93A9E5B0E0E9E5F0E0B8
:1030600080818E7F8C93CF91DF910895DF93CF93F2
:10307000CDB7DEB783E067E040E00E94B206CF91B3
:10308000DF910895DF93CF93CDB7DEB783E067E09C
:1030900041E00E94B206CF91DF910895DF93CF9374
:1030A000CDB7DEB7AA970FB6F894DEBF0FBECDBF7F
:1030B0008091FD00813009F075C00E94AF0580E06D
:1030C00090E0A0E0B0E48FA398A7A9A7BAA76FA14A
:1030D00078A589A59AA520E030E04AE753E40E944C
:1030E0001F02DC01CB018BA39CA3ADA3BEA36BA1EC
:1030F0007CA18DA19EA120E030E040E85FE30E942A
:10310000790388232CF481E090E09AA389A33FC03F
:103110006BA17CA18DA19EA120E03FEF4FE757E47A
:103120000E94190318164CF56FA178A589A59AA5D8
:1031300020E030E040E251E40E941F02DC01CB01BC
:10314000BC01CD010E944900DC01CB019AA389A3F7
:103150000FC089E190E098A38F8F8F8D98A1019780
:10316000F1F798A38F8F89A19AA101979AA389A3B8
:1031700089A19AA1009769F7FFC06BA17CA18DA1DD
:103180009EA10E944900DC01CB019AA389A389A1D9
:103190009AA19E8F8D8F8D8D9E8D0197F1F79E8FB9
:1031A0008D8FEAC08AEF90E00E94B90E80E090E037
:1031B000A0E0B0E4898F9A8FAB8FBC8F698D7A8D38
:1031C0008B8D9C8D20E030E04AE753E40E941F0283
:1031D000DC01CB018D8B9E8BAF8BB88F6D897E8987
:1031E0008F89988D20E030E040E85FE30E9479030A
:1031F00088232CF481E090E09C8B8B8B3FC06D8901
:103200007E898F89988D20E03FEF4FE757E40E9439
:10321000190318164CF5698D7A8D8B8D9C8D20E0E5
:1032200030E040E251E40E941F02DC01CB01BC010E
:10323000CD010E944900DC01CB019C8B8B8B0FC020
:1032400089E190E09A8B898B89899A890197F1F7B6
:103250009A8B898B8B899C8901979C8B8B8B8B8913
:103260009C89009769F714C06D897E898F89988D34
:103270000E944900DC01CB019C8B8B8B8B899C8944
:10328000988B8F878F8598890197F1F7988B8F8717
:103290000E94AF0580E090E0A0E0B0E48B879C87BF
:1032A000AD87BE876B857C858D859E8520E030E06F
:1032B0004AE753E40E941F02DC01CB018F83988709
:1032C000A987BA876F81788589859A8520E030E063
:1032D00040E85FE30E94790388232CF481E090E0CA
:1032E0009E838D833FC06F81788589859A8520E094
:1032F0003FEF4FE757E40E94190318164CF56B8512
:103300007C858D859E8520E030E040E251E40E947E
:103310001F02DC01CB01BC01CD010E944900DC0190
:10332000CB019E838D830FC089E190E09C838B83CA
:103330008B819C810197F1F79C838B838D819E818A
:1033400001979E838D838D819E81009769F714C0BC
:103350006F81788589859A850E944900DC01CB01BF
:103360009E838D838D819E819A83898389819A81B1
:103370000197F1F79A838983AA960FB6F894DEBF76
:103380000FBECDBFCF91DF910895DF93CF93CDB71F
:10339000DEB7AA970FB6F894DEBF0FBECDBF8091FF
:1033A000FD00813009F075C00E94BB0580E090E00F
:1033B000A0E0B0E48FA398A7A9A7BAA76FA178A5AA
:1033C00089A59AA520E030E04AE753E40E941F0255
:1033D000DC01CB018BA39CA3ADA3BEA36BA17CA1FD
:1033E0008DA19EA120E030E040E85FE30E947903D8
:1033F00088232CF481E090E09AA389A33FC06BA1BD
:103400007CA18DA19EA120E03FEF4FE757E40E94F1
:10341000190318164CF56FA178A589A59AA520E087
:1034200030E040E251E40E941F02DC01CB01BC010C
:10343000CD010E944900DC01CB019AA389A30FC0F2
:1034400089E190E098A38F8F8F8D98A10197F1F774
:1034500098A38F8F89A19AA101979AA389A389A183
:103460009AA1009769F7FFC06BA17CA18DA19EA1D5
:103470000E944900DC01CB019AA389A389A19AA1EA
:103480009E8F8D8F8D8D9E8D0197F1F79E8F8D8FE5
:10349000EAC08CE790E00E94B90E80E090E0A0E0E6
:1034A000B0E4898F9A8FAB8FBC8F698D7A8D8B8DAD
:1034B0009C8D20E030E04AE753E40E941F02DC01CB
:1034C000CB018D8B9E8BAF8BB88F6D897E898F8959
:1034D000988D20E030E040E85FE30E947903882384
:1034E0002CF481E090E09C8B8B8B3FC06D897E89B2
:1034F0008F89988D20E03FEF4FE757E40E94190332
:1035000018164CF5698D7A8D8B8D9C8D20E030E0FE
:1035100040E251E40E941F02DC01CB01BC01CD015D
:103520000E944900DC01CB019C8B8B8B0FC089E191
:1035300090E09A8B898B89899A890197F1F79A8B08
:10354000898B8B899C8901979C8B8B8B8B899C8920
:10355000009769F714C06D897E898F89988D0E94C4
:103560004900DC01CB019C8B8B8B8B899C89988BD0
:103570008F878F8598890197F1F7988B8F870E94A5
:10358000BB0580E090E0A0E0B0E48B879C87AD872E
:10359000BE876B857C858D859E8520E030E04AE77F
:1035A00053E40E941F02DC01CB018F839887A98717
:1035B000BA876F81788589859A8520E030E040E878
:1035C0005FE30E94790388232CF481E090E09E83DE
:1035D0008D833FC06F81788589859A8520E03FEF94
:1035E0004FE757E40E94190318164CF56B857C854C
:1035F0008D859E8520E030E040E251E40E941F026C
:10360000DC01CB01BC01CD010E944900DC01CB01F2
:103610009E838D830FC089E190E09C838B838B8197
:103620009C810197F1F79C838B838D819E8101970B
:103630009E838D838D819E81009769F714C06F8171
:10364000788589859A850E944900DC01CB019E839B
:103650008D838D819E819A83898389819A81019747
:10366000F1F79A838983AA960FB6F894DEBF0FBE4E
:10367000CDBFCF91DF9108951F920F920FB60F9299
:1036800011242F933F934F935F936F937F938F9367
:103690009F93AF93BF93EF93FF93DF93CF93CDB7F8
:1036A000DEB7809102018F5F809302018091020159
:1036B000823039F5E0E3F0E08081882F90E084707B
:1036C0009070009719F00E944E180BC08091000175
:1036D000882319F40E94C51904C08CE790E00E9469
:1036E000B90EE0E3F0E08081882F90E08870907060
:1036F000009719F00E94361802C00E9442181092DA
:103700000201CF91DF91FF91EF91BF91AF919F9116
:103710008F917F916F915F914F913F912F910F907A
:103720000FBE0F901F901895DF93CF9300D000D05D
:1037300000D0CDB7DEB79A838983A5E4B0E0E5E495
:10374000F0E080818F778C93E981FA818081282F46
:1037500030E03E832D838D819E81009731F02D8155
:103760003E812130310561F155C0A5E4B0E0E5E4CA
:10377000F0E080818F7B8C93A5E4B0E0E5E4F0E09D
:103780008081877F8C93A5E4B0E0E5E4F0E0808160
:103790008F7E8C93A5E4B0E0E5E4F0E080818F7D3E
:1037A0008C93A9E5B0E0E9E5F0E080818F778C9318
:1037B000A9E5B0E0E9E5F0E0808180648C932AC05F
:1037C000A3E5B0E0E3E5F0E080818F7B8C93A3E597
:1037D000B0E0E3E5F0E0808188608C93A3E5B0E0A1
:1037E000E3E5F0E080818F7E8C93A3E5B0E0E3E534
:1037F000F0E0808180628C93A9E5B0E0E9E5F0E03B
:1038000080818F7B8C93A9E5B0E0E9E5F0E08081D1
:1038100080688C93A5E4B0E0E5E4F0E08081887FE7
:103820008C93E981FA818381282F30E03C832B83BC
:103830008B819C818330910509F440C02B813C81B0
:10384000243031057CF48B819C818130910531F1EC
:103850002B813C81223031054CF58B819C81009776
:10386000B1F053C02B813C8125303105B9F18B81FA
:103870009C818530910554F12B813C8126303105A6
:10388000A9F18B819C8187309105C1F13EC0E5E4AF
:10389000F0E0A5E4B0E08C91808337C0A5E4B0E00F
:1038A000E5E4F0E0808181608C932FC0A5E4B0E076
:1038B000E5E4F0E0808182608C9327C0A5E4B0E06D
:1038C000E5E4F0E0808183608C931FC0A5E4B0E064
:1038D000E5E4F0E0808184608C9317C0A5E4B0E05B
:1038E000E5E4F0E0808185608C930FC0A5E4B0E052
:1038F000E5E4F0E0808186608C9307C0A5E4B0E049
:10390000E5E4F0E0808187608C93A4E4B0E0E98195
:10391000FA8181818C93A3E4B0E0E981FA8182810C
:103920008C93AFE5B0E0EFE5F0E0808180688C93A8
:1039300026960FB6F894DEBF0FBECDBFCF91DF91B4
:103940000895DF93CF93CDB7DEB7E5E4F0E01082C2
:10395000E4E4F0E01082E3E4F0E01082A9E5B0E0F6
:10396000E9E5F0E080818F7B8C93A9E5B0E0E9E5A3
:10397000F0E080818F778C93CF91DF9108951F9233
:103980000F920FB60F9211242F933F934F935F9393
:103990006F937F938F939F93AF93BF93EF93FF9317
:1039A000DF93CF93CDB7DEB7ECE2F0E080818133D7
:1039B00091F483E064E041E00E94B20681E08093EC
:1039C00003018091EF00882F90E020910301622F86
:1039D0000E940E1E42C0ECE2F0E08081823389F446
:1039E00083E064E040E00E94B206109203018091FF
:1039F000EF00882F90E020910301622F0E940E1E9D
:103A00002CC0ECE2F0E08081833391F483E066E047
:103A100041E00E94B20681E0809304018091F000B1
:103A2000882F90E020910401622F0E940E1E15C085
:103A3000ECE2F0E08081843381F483E066E040E0F2
:103A40000E94B206109204018091F000882F90E04D
:103A500020910401622F0E940E1ECF91DF91FF91F1
:103A6000EF91BF91AF919F918F917F916F915F91F6
:103A70004F913F912F910F900FBE0F901F9018956F
:103A8000DF93CF9300D000D000D0CDB7DEB76B83EB
:103A90007C838D839E831A821982EBE2F0E082E0C0
:103AA0008083EAE2F0E080E98083E0E4F0E086E809
:103AB00080838B819C81AD81BE81880F991FAA1F55
:103AC000BB1F880F991FAA1FBB1F880F991FAA1F12
:103AD000BB1F9C01AD0180E492E4AFE0B0E0BC010B
:103AE000CD010E948C1DDA01C90101979A83898357
:103AF000E0E4F0E089819A81892F99278083E9E2C7
:103B0000F0E08981808326960FB6F894DEBF0FBE61
:103B1000CDBFCF91DF910895A1E21A2EAA1BBB1B46
:103B2000FD010DC0AA1FBB1FEE1FFF1FA217B30789
:103B3000E407F50720F0A21BB30BE40BF50B661F9F
:103B4000771F881F991F1A9469F760957095809563
:103B500090959B01AC01BD01CF0108952F923F923A
:103B60004F925F926F927F928F929F92AF92BF928D
:103B7000CF92DF92EF92FF920F931F93CF93DF9339
:103B8000CDB7DEB7CA1BDB0B0FB6F894DEBF0FBE96
:103B9000CDBF09942A88398848885F846E847D84E3
:103BA0008C849B84AA84B984C884DF80EE80FD80E5
:103BB0000C811B81AA81B981CE0FD11D0FB6F8945B
:103BC000DEBF0FBECDBFED010895FB019F01E8945C
:103BD0004230C4F04532B4F44A3029F497FB1EF465
:103BE000909581959F4F642F77270E942B1E805DB3
:103BF0008A330CF0895D8193CB010097A1F716F40D
:103C00005DE251931082C9010C941B1EE199FECF15
:103C10009FBB8EBBE09A99278DB30895262FE1991B
:103C2000FECF9FBB8EBB2DBB0FB6F894E29AE19AF4
:103C30000FBE01960895DC01FC01672F7191772377
:103C4000E1F7329704C07C916D9370836291AE1757
:103C5000BF07C8F30895AA1BBB1B51E107C0AA1FE9
:103C6000BB1FA617B70710F0A61BB70B881F991F1D
:103C70005A95A9F780959095BC01CD010895F894C7
:023C8000FFCF74
:103C82004E657720506173733A005265656E7465B4
:103C92007220506173733A00443A4F70656E20642B
:103CA2006F6F7200433A6368616E6765207061737B
:103CB200732000456E74657220506173733A00453B
:103CC2006E746572204F6C6420506173733A0057B2
:103CD200454C434F4D45004120544849454621211A
:103CE2002100474F204157415921212121004F50A6
:103CF200454E4544005072657373202A20746F202C
:103D0200636C6F736500000000000000000030501B
:023D120055005A
:00000001FF
