:100000000C942A000C9447000C9447000C94470071
:100010000C9495060C9447000C9447000C944700F0
:100020000C9447000C947C050C9447000C94F0064B
:100030000C9447000C9447000C9447000C94470024
:100040000C9447000C9447000C9447000C949405C2
:100050000C94470011241FBECFE5D4E0DEBFCDBF16
:1000600010E0A0E6B0E0E6E9FFE002C005900D92E6
:10007000AA3EB107D9F710E0AAEEB0E001C01D9288
:10008000AD3FB107E1F70E9400040C94C9070C943E
:10009000000082E067E040E00E94CF00089582E027
:1000A00067E041E00E94CF00089582E067E041E010
:1000B0000E945B000895683008F070C0843008F03A
:1000C0006DC0813009F1813030F08230B1F1833080
:1000D00009F064C04BC0413059F42AB381E090E08C
:1000E00002C0880F991F6A95E2F7282B2ABB089552
:1000F0002AB381E090E002C0880F991F6A95E2F769
:10010000809582238ABB0895413059F427B381E05A
:1001100090E002C0880F991F6A95E2F7282B27BB51
:10012000089527B381E090E002C0880F991F6A9577
:10013000E2F78095822387BB0895413059F424B3B8
:1001400081E090E002C0880F991F6A95E2F7282BA2
:1001500024BB089524B381E090E002C0880F991F6A
:100160006A95E2F78095822384BB0895413059F463
:1001700021B381E090E002C0880F991F6A95E2F7F1
:10018000282B21BB089521B381E090E002C0880FA5
:10019000991F6A95E2F78095822381BB08956830A4
:1001A00008F070C0843008F06DC0813009F18130F2
:1001B00030F08230B1F1833009F064C04BC041307F
:1001C00059F42BB381E090E002C0880F991F6A9523
:1001D000E2F7282B2BBB08952BB381E090E002C0FF
:1001E000880F991F6A95E2F7809582238BBB08954B
:1001F000413059F428B381E090E002C0880F991F84
:100200006A95E2F7282B28BB089528B381E090E097
:1002100002C0880F991F6A95E2F78095822388BBF8
:100220000895413059F425B381E090E002C0880F71
:10023000991F6A95E2F7282B25BB089525B381E025
:1002400090E002C0880F991F6A95E2F7809582239B
:1002500085BB0895413059F422B381E090E002C09B
:10026000880F991F6A95E2F7282B22BB089522B3C5
:1002700081E090E002C0880F991F6A95E2F78095AF
:10028000822382BB08956830D0F48430C0F481307A
:1002900049F0813028F0823039F0833081F406C093
:1002A00089B305C086B303C083B301C080B390E0B7
:1002B00002C0959587956A95E2F78170089580E070
:1002C0000895843080F4813049F0813028F0823004
:1002D00039F0833041F406C06ABB089567BB0895C6
:1002E00064BB089561BB0895843080F4813049F087
:1002F000813028F0823039F0833041F406C06BBB86
:10030000089568BB089565BB089562BB0895843065
:1003100088F4813049F0813028F0823039F0833020
:1003200049F406C089B3089586B3089583B3089548
:1003300080B3089580E008950F931F93CF93DF93C8
:1003400010E000E0C1E0D0E001C0012F81E060E0FA
:100350000E946101612F6C5F81E041E00E945B00BF
:10036000612F70E06C5F7F4FCE0102C0880F991F34
:100370006A95E2F7BC01609581E00E94740181E01A
:1003800060E00E9443018823C1F081E061E00E94A7
:100390004301882311F481E010C081E062E00E94F3
:1003A0004301882311F482E008C081E063E00E94E9
:1003B0004301882309F04BC083E00F5F880F880F4B
:1003C000800F883081F1893080F4843021F18530CC
:1003D00038F48230D1F08330E0F4813099F517C0E1
:1003E0008630E9F08730E8F418C08C3021F18D3088
:1003F00028F48A30E1F08B30E0F417C08F30F9F048
:100400008031F9F08E30F1F418C088E01BC087E02D
:1004100019C089E017C085E215C084E013C085E0EB
:1004200011C086E00FC08AE20DC081E00BC082E0FF
:1004300009C083E007C08DE205C080E003C08DE302
:1004400001C08BE2DF91CF911F910F9108951F5F43
:10045000143008F47ACF10E000E078CFFF920F93C9
:100460001F93F82E82E060E041E00E94CF0082E01E
:1004700066E040E00E94CF000AEF10E0C80101975B
:10048000F1F782E061E041E00E94CF00C8010197EE
:10049000F1F780E06F2D0E947401C8010197F1F718
:1004A00082E061E040E00E94CF00C8010197F1F7CF
:1004B0001F910F91FF9008951F93CF93DF93EC014D
:1004C00010E003C00E942E021F5FFE01E10FF11D2C
:1004D00080818823B9F7DF91CF911F9108950F9301
:1004E0001F93DF93CF93CDB7DEB760970FB6F89425
:1004F000DEBF0FBECDBF8E010F5F1F4FB8014AE0B8
:1005000050E00E946F07C8010E945C0260960FB61F
:10051000F894DEBF0FBECDBFCF91DF911F910F9139
:100520000895FF920F931F93F82E82E060E040E061
:100530000E94CF0082E066E040E00E94CF000AEF18
:1005400010E0C8010197F1F782E061E041E00E940C
:10055000CF00C8010197F1F780E06F2D0E94740170
:10056000C8010197F1F782E061E040E00E94CF000E
:10057000C8010197F1F71F910F91FF90089581E055
:100580000E9491020895813039F0813050F082301C
:1005900029F0833031F404C0605C03C0605F01C0A7
:1005A000605B862F80680E94910208950F931F93CD
:1005B0008A010E94C302C8010E945C021F910F9130
:1005C000089582E060E041E00E945B0082E066E026
:1005D00041E00E945B0082E061E041E00E945B003C
:1005E00080E06FEF0E94610188E30E9491028CE03D
:1005F0000E94910281E00E94910208951DBC1CBCE2
:1006000023EC39E037BD26BD9BBD8ABD8FB582681E
:100610008FBD8EB58A618EBD0895AC0120E030E0BB
:10062000FA01E20FF31FDB01A20FB31F90818C913F
:10063000981719F01092F60008952F5F3F4F25305C
:10064000310571F781E08093F600089580E090E035
:100650006091EA000E94980781E090E06091EB00D1
:100660000E94980782E090E06091EC000E94980759
:1006700083E090E06091ED000E94980784E090E0B4
:100680006091EE000E9498071092F40008950E9475
:10069000BF0280E690E00E945C0281E060E00E9480
:1006A000C3028CE690E00E945C020895CF93DF9332
:1006B000C0E0D0E0CE010E949007FE01E151FF4F63
:1006C00080832196C530D105A9F7DF91CF91089598
:1006D0008091E60090E00E9490078093F500809161
:1006E000E70090E00E9490078093FB008091E80073
:1006F00090E00E9490078093FC0008951F93CF9391
:10070000DF93C0E0D0E011E0CE010E9490078F3F60
:1007100019F41093F40002C01092F4002196C53031
:10072000D10591F7DF91CF911F9108950F931F93FA
:10073000CF93DF9381E060E00E94C302CFEED0E070
:1007400009E110E00E949C0188838AE20E942E0247
:1007500088E893E1F8013197F1F70197D9F72196ED
:1007600080E0C43FD80771F7DF91CF911F910F91BF
:1007700008950E94BF028BE790E00E945C020E94F5
:10078000960308950F931F93CF93DF9381E060E06A
:100790000E94C302CAEED0E009E110E00E949C0171
:1007A00088838AE20E942E0288E893E1F80131975B
:1007B000F1F70197D9F7219680E0CF3ED80771F77E
:1007C000DF91CF911F910F9108950E94BF0289E898
:1007D00090E00E945C020E94C20308950E94BF0242
:1007E00089E990E00E945C020E94C20308950E9481
:1007F000BF0285EA90E00E945C020E94C203089555
:10080000AF92BF92CF92DF92FF920F931F93DF932D
:10081000CF93CDB7DEB728970FB6F894DEBF0FBEE3
:10082000CDBF78940E94E1028FEA90E00E945C02C2
:1008300080E395E729E130E0F9013197F1F701977D
:10084000D9F760E875E280E090E00E94D6060E9449
:10085000550019821A821B8285E08C831D821E82BC
:100860001F828887CE0105960E94E40583E067E039
:1008700041E00E945B0083E067E040E00E94CF001F
:1008800083E066E041E00E945B0083E064E041E0D9
:100890000E945B0083E066E040E00E94CF0083E0BE
:1008A00064E040E00E94CF0083E065E041E00E9408
:1008B0005B0083E062E040E00E945B0083E063E075
:1008C00040E00E945B000E947E038091F400882338
:1008D00081F00E94F7030E94B9038AEE90E06FEE68
:1008E00070E00E940D038091F600882391F30E942E
:1008F00026030E9468038091F500882361F08CE74D
:1009000090E00E94FE021092F5008091E60090E0D7
:1009100060E00E9498078091FB00882321F483E027
:1009200064E040E005C0813029F483E064E041E008
:100930000E94CF008091FC00882321F483E066E0D0
:1009400040E005C0813029F483E066E041E00E9488
:10095000CF0089E1A82EB12CFF24F3940AEF10E018
:100960006E010894C11CD11C0E9447030E949C0187
:1009700028E833E1F5013197F1F721503040D1F704
:100980008B3219F08D3281F769C00E94EE030E940C
:1009900056038AEE90E06FEE70E00E940D038091A6
:1009A000F600882341F58091F7008F5F8093F70070
:1009B000833059F7F092F8000E94BF0280E063E0B4
:1009C00047EB50E00E94D602C8010197F1F781E0A1
:1009D00063E042EC50E00E94D602C8010197F1F7B3
:1009E000C6010E949E050E944F008091F700882357
:1009F00009F468C07FC00E94BF02C8010197F1F7E7
:100A00008EEC90E00E945C02C8010197F1F781E052
:100A100060E00E94C30285ED90E00E945C021092AB
:100A2000F7008AEF90E00E94FE02F092F5008091BC
:100A3000E60090E061E00E9498070E949C018D30E2
:100A4000E1F78CE790E00E94FE021092F5008091A1
:100A5000E60090E060E00E94980786CF0E94E503E0
:100A60000E9456038AEE90E06FEE70E00E940D0344
:100A70008091F600882359F58091F7008F5F80936D
:100A8000F700833059F7F092F8000E94BF0280E02F
:100A900063E047EB50E00E94D602C8010197F1F7EE
:100AA00081E063E042EC50E00E94D602C801019769
:100AB000F1F7C6010E949E050E944F008091F70049
:100AC0008823C9F40E94DA051092F8004DCF1092E5
:100AD000F7000E94F7030E94B9038AEE90E06FEEE0
:100AE00070E00E940D038091F600882391F30E942C
:100AF00026033ACFFFCFFFCF1F920F920FB60F9270
:100B000011248F938091F9008F5F8093F900803FCB
:100B100029F4AF981092F9001092F7008F910F907E
:100B20000FBE0F901F9018951F920F920FB60F9245
:100B300011240F900FBE0F901F901895FC0183B7E2
:100B40008F7783BF8081882319F0813029F512C007
:100B500083B78F7B83BF83B7877F83BF83B78F7E46
:100B600083BF83B78F7D83BF89B78D7F89BF89B7E7
:100B7000816011C083B78F7B83BF83B7886083BFD9
:100B800083B78F7E83BF83B7806283BF89B78E7F31
:100B900089BF89B7826089BF93B783818770987F47
:100BA000892B83BF818182BF82818CBF8FB7806890
:100BB0008FBF089513BE12BE1CBE89B78D7F89BF3B
:100BC00089B78E7F89BF0895FC0185B58F7785BD74
:100BD0008081882319F0813029F512C085B58F7B7B
:100BE00085BD85B5877F85BD85B58F7E85BD85B57E
:100BF0008F7D85BD89B78F7789BF89B7806411C024
:100C000083B78F7B83BF83B7886083BF83B78F7EB3
:100C100083BF83B7806283BF89B78F7B89BF89B762
:100C2000806889BF85B5887F85BD83818330C1F0A9
:100C3000843028F4813071F0823078F409C0853036
:100C4000A9F0853080F08630A1F08730C1F414C05F
:100C500085B514C085B5816011C085B582600EC0B0
:100C600085B583600BC085B5846008C085B5856097
:100C700005C085B5866002C085B5876085BD818168
:100C800084BD828183BD8FB780688FBF089515BCF6
:100C900014BC13BC89B78F7B89BF89B78F7789BF95
:100CA00008950F931F938091F500813029F40E94DD
:100CB000490084EF91E00CC08CE790E00E94FE02B6
:100CC00004EF11E0C8010197F1F70E944900C80143
:100CD0000197F1F71F910F9108950F931F93809142
:100CE000F500813029F40E944F0084EF91E00CC0A0
:100CF0008AEF90E00E94FE0204EF11E0C801019724
:100D0000F1F70E944F00C8010197F1F71F910F9171
:100D1000089583E067E041E00E94CF00089583E0FA
:100D200067E040E00E94CF0008951F920F920FB637
:100D30000F9211242F933F934F935F936F937F9361
:100D40008F939F93AF93BF93EF93FF938091FA009C
:100D50008F5F8093FA008230C1F4829B03C00E94AF
:100D60006D0606C08091F800833010F40E94510691
:100D7000839B04C083E067E040E003C083E067E05A
:100D800041E00E94CF001092FA00FF91EF91BF91D5
:100D9000AF919F918F917F916F915F914F913F9113
:100DA0002F910F900FBE0F901F9018959B01AC01D3
:100DB00082E08BB980E98AB986E880BD83E0220FA2
:100DC000331F441F551F8A95D1F760E472E48FE00A
:100DD00090E00E944D072150304030BD29B9089560
:100DE0001F920F920FB60F9211242F933F934F93A0
:100DF0005F936F937F938F939F93AF93BF93EF9383
:100E0000FF938CB1813359F483E064E041E00E94A8
:100E1000CF0081E08093FB008091E7001AC08CB185
:100E2000823351F483E064E040E00E94CF001092EE
:100E3000FB008091E7001CC08CB1833369F483E030
:100E400066E041E00E94CF0081E08093FC00809149
:100E5000E80090E061E00EC08CB1843369F483E077
:100E600066E040E00E94CF001092FC008091E80014
:100E700090E060E00E949807FF91EF91BF91AF91E1
:100E80009F918F917F916F915F914F913F912F91A2
:100E90000F900FBE0F901F901895A1E21A2EAA1B5B
:100EA000BB1BFD010DC0AA1FBB1FEE1FFF1FA2171A
:100EB000B307E407F50720F0A21BB30BE40BF50B17
:100EC000661F771F881F991F1A9469F760957095A0
:100ED000809590959B01AC01BD01CF010895FB0168
:100EE0009F01E8944230C4F04532B4F44A3029F40A
:100EF00097FB1EF4909581959F4F642F77270E9452
:100F0000B507805D8A330CF0895D8193CB01009732
:100F1000A1F716F45DE251931082C9010C94A50764
:100F2000E199FECF9FBB8EBBE09A99278DB30895C0
:100F3000262FE199FECF9FBB8EBB2DBB0FB6F89439
:100F4000E29AE19A0FBE01960895DC01FC01672F39
:100F500071917723E1F7329704C07C916D93708390
:100F60006291AE17BF07C8F30895AA1BBB1B51E1DE
:100F700007C0AA1FBB1FA617B70710F0A61BB70B09
:100F8000881F991F5A95A9F780959095BC01CD01AE
:060F90000895F894FFCF64
:100F9600443A4F70656E20646F6F7200433A63681F
:100FA600616E6765207061737320005265656E74AB
:100FB600657220506173733A00456E746572204FF6
:100FC6006C6420506173733A00456E7465722050EC
:100FD6006173733A004E657720506173733A005718
:100FE600454C434F4D450041205448494546212133
:100FF6002100474F204157415921212121004F50BF
:10100600454E4544005072657373202A20746F2044
:0A101600636C6F73650030505500E5
:00000001FF
